{
  "_format": "hh-sol-artifact-1",
  "contractName": "MessageDapp",
  "sourceName": "contracts/MessageDapp.sol",
  "abi": [
    {
      "anonymous": false,
      "inputs": [
        {
          "indexed": true,
          "internalType": "address",
          "name": "sender",
          "type": "address"
        },
        {
          "indexed": true,
          "internalType": "address",
          "name": "receiver",
          "type": "address"
        },
        {
          "indexed": true,
          "internalType": "uint256",
          "name": "messageIndex",
          "type": "uint256"
        },
        {
          "indexed": false,
          "internalType": "string",
          "name": "cipherText",
          "type": "string"
        }
      ],
      "name": "MessageSent",
      "type": "event"
    },
    {
      "inputs": [
        {
          "internalType": "address",
          "name": "",
          "type": "address"
        }
      ],
      "name": "encryptionPublicKeys",
      "outputs": [
        {
          "internalType": "string",
          "name": "",
          "type": "string"
        }
      ],
      "stateMutability": "view",
      "type": "function"
    },
    {
      "inputs": [
        {
          "internalType": "uint256",
          "name": "_index",
          "type": "uint256"
        }
      ],
      "name": "getMessage",
      "outputs": [
        {
          "internalType": "address",
          "name": "sender",
          "type": "address"
        },
        {
          "internalType": "address",
          "name": "receiver",
          "type": "address"
        },
        {
          "internalType": "string",
          "name": "cipherText",
          "type": "string"
        },
        {
          "internalType": "uint256",
          "name": "timestamp",
          "type": "uint256"
        }
      ],
      "stateMutability": "view",
      "type": "function"
    },
    {
      "inputs": [],
      "name": "getMessageCount",
      "outputs": [
        {
          "internalType": "uint256",
          "name": "",
          "type": "uint256"
        }
      ],
      "stateMutability": "view",
      "type": "function"
    },
    {
      "inputs": [
        {
          "internalType": "address",
          "name": "_user",
          "type": "address"
        }
      ],
      "name": "getUserMessages",
      "outputs": [
        {
          "components": [
            {
              "internalType": "address",
              "name": "sender",
              "type": "address"
            },
            {
              "internalType": "address",
              "name": "receiver",
              "type": "address"
            },
            {
              "internalType": "string",
              "name": "cipherText",
              "type": "string"
            },
            {
              "internalType": "uint256",
              "name": "timestamp",
              "type": "uint256"
            }
          ],
          "internalType": "struct MessageDapp.EncryptedMessage[]",
          "name": "",
          "type": "tuple[]"
        }
      ],
      "stateMutability": "view",
      "type": "function"
    },
    {
      "inputs": [
        {
          "internalType": "string",
          "name": "_publicKey",
          "type": "string"
        }
      ],
      "name": "registerEncryptionKey",
      "outputs": [],
      "stateMutability": "nonpayable",
      "type": "function"
    },
    {
      "inputs": [
        {
          "internalType": "address",
          "name": "_receiver",
          "type": "address"
        },
        {
          "internalType": "string",
          "name": "_cipherText",
          "type": "string"
        }
      ],
      "name": "sendMessage",
      "outputs": [],
      "stateMutability": "nonpayable",
      "type": "function"
    }
  ],
  "bytecode": "0x608060405234801561001057600080fd5b50611676806100206000396000f3fe608060405234801561001057600080fd5b50600436106100625760003560e01c80633193391614610067578063570b0257146100855780638207767c146100b557806386f79edb146100d157806398d63d3d14610104578063de6f24bb14610134575b600080fd5b61006f610150565b60405161007c9190610b23565b60405180910390f35b61009f600480360381019061009a9190610ba6565b61015d565b6040516100ac9190610c63565b60405180910390f35b6100cf60048036038101906100ca9190610cea565b6101fd565b005b6100eb60048036038101906100e69190610d63565b61024f565b6040516100fb9493929190610d9f565b60405180910390f35b61011e60048036038101906101199190610ba6565b61036a565b60405161012b9190610f78565b60405180910390f35b61014e60048036038101906101499190610f9a565b6107b3565b005b6000600180549050905090565b6000602052806000526040600020600091509050805461017c90611029565b80601f01602080910402602001604051908101604052809291908181526020018280546101a890611029565b80156101f55780601f106101ca576101008083540402835291602001916101f5565b820191906000526020600020905b8154815290600101906020018083116101d857829003601f168201915b505050505081565b81816000803373ffffffffffffffffffffffffffffffffffffffff1673ffffffffffffffffffffffffffffffffffffffff168152602001908152602001600020918261024a929190611240565b505050565b60008060606000806001868154811061026b5761026a611310565b5b906000526020600020906004020190508060000160009054906101000a900473ffffffffffffffffffffffffffffffffffffffff168160010160009054906101000a900473ffffffffffffffffffffffffffffffffffffffff168260020183600301548180546102da90611029565b80601f016020809104026020016040519081016040528092919081815260200182805461030690611029565b80156103535780601f1061032857610100808354040283529160200191610353565b820191906000526020600020905b81548152906001019060200180831161033657829003601f168201915b505050505091509450945094509450509193509193565b6060600060018054905090506000805b82811015610498578473ffffffffffffffffffffffffffffffffffffffff16600182815481106103ad576103ac611310565b5b906000526020600020906004020160000160009054906101000a900473ffffffffffffffffffffffffffffffffffffffff1673ffffffffffffffffffffffffffffffffffffffff16148061047157508473ffffffffffffffffffffffffffffffffffffffff166001828154811061042757610426611310565b5b906000526020600020906004020160010160009054906101000a900473ffffffffffffffffffffffffffffffffffffffff1673ffffffffffffffffffffffffffffffffffffffff16145b156104855781806104819061136e565b9250505b80806104909061136e565b91505061037a565b5060008167ffffffffffffffff8111156104b5576104b4611065565b5b6040519080825280602002602001820160405280156104ee57816020015b6104db610ab6565b8152602001906001900390816104d35790505b5090506000805b848110156107a6578673ffffffffffffffffffffffffffffffffffffffff166001828154811061052857610527611310565b5b906000526020600020906004020160000160009054906101000a900473ffffffffffffffffffffffffffffffffffffffff1673ffffffffffffffffffffffffffffffffffffffff1614806105ec57508673ffffffffffffffffffffffffffffffffffffffff16600182815481106105a2576105a1611310565b5b906000526020600020906004020160010160009054906101000a900473ffffffffffffffffffffffffffffffffffffffff1673ffffffffffffffffffffffffffffffffffffffff16145b15610793576001818154811061060557610604611310565b5b90600052602060002090600402016040518060800160405290816000820160009054906101000a900473ffffffffffffffffffffffffffffffffffffffff1673ffffffffffffffffffffffffffffffffffffffff1673ffffffffffffffffffffffffffffffffffffffff1681526020016001820160009054906101000a900473ffffffffffffffffffffffffffffffffffffffff1673ffffffffffffffffffffffffffffffffffffffff1673ffffffffffffffffffffffffffffffffffffffff1681526020016002820180546106da90611029565b80601f016020809104026020016040519081016040528092919081815260200182805461070690611029565b80156107535780601f1061072857610100808354040283529160200191610753565b820191906000526020600020905b81548152906001019060200180831161073657829003601f168201915b5050505050815260200160038201548152505083838151811061077957610778611310565b5b6020026020010181905250818061078f9061136e565b9250505b808061079e9061136e565b9150506104f5565b5081945050505050919050565b60008060003373ffffffffffffffffffffffffffffffffffffffff1673ffffffffffffffffffffffffffffffffffffffff16815260200190815260200160002080546107fe90611029565b905011610840576040517f08c379a000000000000000000000000000000000000000000000000000000000815260040161083790611428565b60405180910390fd5b60008060008573ffffffffffffffffffffffffffffffffffffffff1673ffffffffffffffffffffffffffffffffffffffff168152602001908152602001600020805461088b90611029565b9050116108cd576040517f08c379a00000000000000000000000000000000000000000000000000000000081526004016108c4906114ba565b60405180910390fd5b600160405180608001604052803373ffffffffffffffffffffffffffffffffffffffff1681526020018573ffffffffffffffffffffffffffffffffffffffff16815260200184848080601f016020809104026020016040519081016040528093929190818152602001838380828437600081840152601f19601f82011690508083019250505050505050815260200142815250908060018154018082558091505060019003906000526020600020906004020160009091909190915060008201518160000160006101000a81548173ffffffffffffffffffffffffffffffffffffffff021916908373ffffffffffffffffffffffffffffffffffffffff16021790555060208201518160010160006101000a81548173ffffffffffffffffffffffffffffffffffffffff021916908373ffffffffffffffffffffffffffffffffffffffff1602179055506040820151816002019081610a2c91906114da565b5060608201518160030155505060018080549050610a4a91906115ac565b8373ffffffffffffffffffffffffffffffffffffffff163373ffffffffffffffffffffffffffffffffffffffff167f0b6aa398652c861e442761200431647f8622c16488a180e5354301cdcfb337158585604051610aa992919061161c565b60405180910390a4505050565b6040518060800160405280600073ffffffffffffffffffffffffffffffffffffffff168152602001600073ffffffffffffffffffffffffffffffffffffffff16815260200160608152602001600081525090565b6000819050919050565b610b1d81610b0a565b82525050565b6000602082019050610b386000830184610b14565b92915050565b600080fd5b600080fd5b600073ffffffffffffffffffffffffffffffffffffffff82169050919050565b6000610b7382610b48565b9050919050565b610b8381610b68565b8114610b8e57600080fd5b50565b600081359050610ba081610b7a565b92915050565b600060208284031215610bbc57610bbb610b3e565b5b6000610bca84828501610b91565b91505092915050565b600081519050919050565b600082825260208201905092915050565b60005b83811015610c0d578082015181840152602081019050610bf2565b60008484015250505050565b6000601f19601f8301169050919050565b6000610c3582610bd3565b610c3f8185610bde565b9350610c4f818560208601610bef565b610c5881610c19565b840191505092915050565b60006020820190508181036000830152610c7d8184610c2a565b905092915050565b600080fd5b600080fd5b600080fd5b60008083601f840112610caa57610ca9610c85565b5b8235905067ffffffffffffffff811115610cc757610cc6610c8a565b5b602083019150836001820283011115610ce357610ce2610c8f565b5b9250929050565b60008060208385031215610d0157610d00610b3e565b5b600083013567ffffffffffffffff811115610d1f57610d1e610b43565b5b610d2b85828601610c94565b92509250509250929050565b610d4081610b0a565b8114610d4b57600080fd5b50565b600081359050610d5d81610d37565b92915050565b600060208284031215610d7957610d78610b3e565b5b6000610d8784828501610d4e565b91505092915050565b610d9981610b68565b82525050565b6000608082019050610db46000830187610d90565b610dc16020830186610d90565b8181036040830152610dd38185610c2a565b9050610de26060830184610b14565b95945050505050565b600081519050919050565b600082825260208201905092915050565b6000819050602082019050919050565b610e2081610b68565b82525050565b600082825260208201905092915050565b6000610e4282610bd3565b610e4c8185610e26565b9350610e5c818560208601610bef565b610e6581610c19565b840191505092915050565b610e7981610b0a565b82525050565b6000608083016000830151610e976000860182610e17565b506020830151610eaa6020860182610e17565b5060408301518482036040860152610ec28282610e37565b9150506060830151610ed76060860182610e70565b508091505092915050565b6000610eee8383610e7f565b905092915050565b6000602082019050919050565b6000610f0e82610deb565b610f188185610df6565b935083602082028501610f2a85610e07565b8060005b85811015610f665784840389528151610f478582610ee2565b9450610f5283610ef6565b925060208a01995050600181019050610f2e565b50829750879550505050505092915050565b60006020820190508181036000830152610f928184610f03565b905092915050565b600080600060408486031215610fb357610fb2610b3e565b5b6000610fc186828701610b91565b935050602084013567ffffffffffffffff811115610fe257610fe1610b43565b5b610fee86828701610c94565b92509250509250925092565b7f4e487b7100000000000000000000000000000000000000000000000000000000600052602260045260246000fd5b6000600282049050600182168061104157607f821691505b60208210810361105457611053610ffa565b5b50919050565b600082905092915050565b7f4e487b7100000000000000000000000000000000000000000000000000000000600052604160045260246000fd5b60008190508160005260206000209050919050565b60006020601f8301049050919050565b600082821b905092915050565b6000600883026110f67fffffffffffffffffffffffffffffffffffffffffffffffffffffffffffffffff826110b9565b61110086836110b9565b95508019841693508086168417925050509392505050565b6000819050919050565b600061113d61113861113384610b0a565b611118565b610b0a565b9050919050565b6000819050919050565b61115783611122565b61116b61116382611144565b8484546110c6565b825550505050565b600090565b611180611173565b61118b81848461114e565b505050565b5b818110156111af576111a4600082611178565b600181019050611191565b5050565b601f8211156111f4576111c581611094565b6111ce846110a9565b810160208510156111dd578190505b6111f16111e9856110a9565b830182611190565b50505b505050565b600082821c905092915050565b6000611217600019846008026111f9565b1980831691505092915050565b60006112308383611206565b9150826002028217905092915050565b61124a838361105a565b67ffffffffffffffff81111561126357611262611065565b5b61126d8254611029565b6112788282856111b3565b6000601f8311600181146112a75760008415611295578287013590505b61129f8582611224565b865550611307565b601f1984166112b586611094565b60005b828110156112dd578489013582556001820191506020850194506020810190506112b8565b868310156112fa57848901356112f6601f891682611206565b8355505b6001600288020188555050505b50505050505050565b7f4e487b7100000000000000000000000000000000000000000000000000000000600052603260045260246000fd5b7f4e487b7100000000000000000000000000000000000000000000000000000000600052601160045260246000fd5b600061137982610b0a565b91507fffffffffffffffffffffffffffffffffffffffffffffffffffffffffffffffff82036113ab576113aa61133f565b5b600182019050919050565b7f53656e64657220686173206e6f207075626c6963206b6579207265676973746560008201527f7265640000000000000000000000000000000000000000000000000000000000602082015250565b6000611412602383610bde565b915061141d826113b6565b604082019050919050565b6000602082019050818103600083015261144181611405565b9050919050565b7f526563656976657220686173206e6f207075626c6963206b657920726567697360008201527f7465726564000000000000000000000000000000000000000000000000000000602082015250565b60006114a4602583610bde565b91506114af82611448565b604082019050919050565b600060208201905081810360008301526114d381611497565b9050919050565b6114e382610bd3565b67ffffffffffffffff8111156114fc576114fb611065565b5b6115068254611029565b6115118282856111b3565b600060209050601f8311600181146115445760008415611532578287015190505b61153c8582611224565b8655506115a4565b601f19841661155286611094565b60005b8281101561157a57848901518255600182019150602085019450602081019050611555565b868310156115975784890151611593601f891682611206565b8355505b6001600288020188555050505b505050505050565b60006115b782610b0a565b91506115c283610b0a565b92508282039050818111156115da576115d961133f565b5b92915050565b82818337600083830152505050565b60006115fb8385610bde565b93506116088385846115e0565b61161183610c19565b840190509392505050565b600060208201905081810360008301526116378184866115ef565b9050939250505056fea264697066735822122020284d190e7492ef57d82c65cd02a80017796325b60f1bce18bd0dabdc53d65964736f6c63430008110033",
  "linkReferences": {},
  "deployedLinkReferences": {}
}